{
  "contractName": "AuditLogger",
  "abi": [
    {
      "inputs": [
        {
          "internalType": "address",
          "name": "_vault",
          "type": "address"
        }
      ],
      "stateMutability": "nonpayable",
      "type": "constructor"
    },
    {
      "anonymous": false,
      "inputs": [
        {
          "indexed": true,
          "internalType": "uint256",
          "name": "id",
          "type": "uint256"
        },
        {
          "indexed": false,
          "internalType": "string",
          "name": "action",
          "type": "string"
        },
        {
          "indexed": true,
          "internalType": "address",
          "name": "actor",
          "type": "address"
        },
        {
          "indexed": false,
          "internalType": "uint256",
          "name": "amount",
          "type": "uint256"
        }
      ],
      "name": "AuditEntryAdded",
      "type": "event"
    },
    {
      "anonymous": false,
      "inputs": [
        {
          "indexed": true,
          "internalType": "address",
          "name": "donor",
          "type": "address"
        },
        {
          "indexed": false,
          "internalType": "enum AuditLogger.BadgeTier",
          "name": "newTier",
          "type": "uint8"
        }
      ],
      "name": "BadgeUpgraded",
      "type": "event"
    },
    {
      "anonymous": false,
      "inputs": [
        {
          "indexed": true,
          "internalType": "address",
          "name": "donor",
          "type": "address"
        },
        {
          "indexed": false,
          "internalType": "string",
          "name": "milestone",
          "type": "string"
        }
      ],
      "name": "MilestoneReached",
      "type": "event"
    },
    {
      "inputs": [],
      "name": "BRONZE",
      "outputs": [
        {
          "internalType": "uint256",
          "name": "",
          "type": "uint256"
        }
      ],
      "stateMutability": "view",
      "type": "function",
      "constant": true
    },
    {
      "inputs": [],
      "name": "DIAMOND",
      "outputs": [
        {
          "internalType": "uint256",
          "name": "",
          "type": "uint256"
        }
      ],
      "stateMutability": "view",
      "type": "function",
      "constant": true
    },
    {
      "inputs": [],
      "name": "GOLD",
      "outputs": [
        {
          "internalType": "uint256",
          "name": "",
          "type": "uint256"
        }
      ],
      "stateMutability": "view",
      "type": "function",
      "constant": true
    },
    {
      "inputs": [],
      "name": "SILVER",
      "outputs": [
        {
          "internalType": "uint256",
          "name": "",
          "type": "uint256"
        }
      ],
      "stateMutability": "view",
      "type": "function",
      "constant": true
    },
    {
      "inputs": [],
      "name": "admin",
      "outputs": [
        {
          "internalType": "address",
          "name": "",
          "type": "address"
        }
      ],
      "stateMutability": "view",
      "type": "function",
      "constant": true
    },
    {
      "inputs": [],
      "name": "auditCount",
      "outputs": [
        {
          "internalType": "uint256",
          "name": "",
          "type": "uint256"
        }
      ],
      "stateMutability": "view",
      "type": "function",
      "constant": true
    },
    {
      "inputs": [
        {
          "internalType": "uint256",
          "name": "",
          "type": "uint256"
        }
      ],
      "name": "auditLog",
      "outputs": [
        {
          "internalType": "uint256",
          "name": "id",
          "type": "uint256"
        },
        {
          "internalType": "string",
          "name": "action",
          "type": "string"
        },
        {
          "internalType": "address",
          "name": "actor",
          "type": "address"
        },
        {
          "internalType": "uint256",
          "name": "causeId",
          "type": "uint256"
        },
        {
          "internalType": "uint256",
          "name": "amount",
          "type": "uint256"
        },
        {
          "internalType": "uint256",
          "name": "timestamp",
          "type": "uint256"
        },
        {
          "internalType": "bytes32",
          "name": "dataHash",
          "type": "bytes32"
        }
      ],
      "stateMutability": "view",
      "type": "function",
      "constant": true
    },
    {
      "inputs": [
        {
          "internalType": "address",
          "name": "",
          "type": "address"
        }
      ],
      "name": "donors",
      "outputs": [
        {
          "internalType": "enum AuditLogger.BadgeTier",
          "name": "tier",
          "type": "uint8"
        },
        {
          "internalType": "uint256",
          "name": "totalGiven",
          "type": "uint256"
        },
        {
          "internalType": "uint256",
          "name": "donationCount",
          "type": "uint256"
        },
        {
          "internalType": "uint256",
          "name": "firstDonation",
          "type": "uint256"
        },
        {
          "internalType": "bool",
          "name": "exists",
          "type": "bool"
        }
      ],
      "stateMutability": "view",
      "type": "function",
      "constant": true
    },
    {
      "inputs": [],
      "name": "vault",
      "outputs": [
        {
          "internalType": "address",
          "name": "",
          "type": "address"
        }
      ],
      "stateMutability": "view",
      "type": "function",
      "constant": true
    },
    {
      "inputs": [
        {
          "internalType": "address",
          "name": "_donor",
          "type": "address"
        },
        {
          "internalType": "uint256",
          "name": "_causeId",
          "type": "uint256"
        },
        {
          "internalType": "uint256",
          "name": "_amount",
          "type": "uint256"
        },
        {
          "internalType": "string",
          "name": "_note",
          "type": "string"
        }
      ],
      "name": "logDonation",
      "outputs": [],
      "stateMutability": "nonpayable",
      "type": "function"
    },
    {
      "inputs": [
        {
          "internalType": "string",
          "name": "_action",
          "type": "string"
        },
        {
          "internalType": "uint256",
          "name": "_causeId",
          "type": "uint256"
        },
        {
          "internalType": "uint256",
          "name": "_amount",
          "type": "uint256"
        }
      ],
      "name": "logAction",
      "outputs": [],
      "stateMutability": "nonpayable",
      "type": "function"
    },
    {
      "inputs": [
        {
          "internalType": "address",
          "name": "_d",
          "type": "address"
        }
      ],
      "name": "getDonor",
      "outputs": [
        {
          "internalType": "uint8",
          "name": "tier",
          "type": "uint8"
        },
        {
          "internalType": "uint256",
          "name": "total",
          "type": "uint256"
        },
        {
          "internalType": "uint256",
          "name": "count",
          "type": "uint256"
        },
        {
          "internalType": "uint256",
          "name": "first",
          "type": "uint256"
        }
      ],
      "stateMutability": "view",
      "type": "function",
      "constant": true
    },
    {
      "inputs": [
        {
          "internalType": "uint256",
          "name": "_i",
          "type": "uint256"
        }
      ],
      "name": "getEntry",
      "outputs": [
        {
          "internalType": "uint256",
          "name": "",
          "type": "uint256"
        },
        {
          "internalType": "string",
          "name": "",
          "type": "string"
        },
        {
          "internalType": "address",
          "name": "",
          "type": "address"
        },
        {
          "internalType": "uint256",
          "name": "",
          "type": "uint256"
        },
        {
          "internalType": "uint256",
          "name": "",
          "type": "uint256"
        },
        {
          "internalType": "uint256",
          "name": "",
          "type": "uint256"
        }
      ],
      "stateMutability": "view",
      "type": "function",
      "constant": true
    },
    {
      "inputs": [
        {
          "internalType": "address",
          "name": "_actor",
          "type": "address"
        },
        {
          "internalType": "string",
          "name": "_action",
          "type": "string"
        },
        {
          "internalType": "uint256",
          "name": "_causeId",
          "type": "uint256"
        },
        {
          "internalType": "uint256",
          "name": "_amount",
          "type": "uint256"
        }
      ],
      "name": "logActionInternal",
      "outputs": [],
      "stateMutability": "nonpayable",
      "type": "function"
    }
  ],
  "bytecode": "0x608060405234801561001057600080fd5b5060405161140538038061140583398101604081905261002f91610062565b60008054336001600160a01b031991821617909155600180549091166001600160a01b0392909216919091179055610092565b60006020828403121561007457600080fd5b81516001600160a01b038116811461008b57600080fd5b9392505050565b611364806100a16000396000f3fe608060405234801561001057600080fd5b50600436106100ea5760003560e01c8063c8214f831161008c578063e3e55f0811610066578063e3e55f0814610221578063f22ac6f114610230578063f851a44014610256578063fbfa77cf1461028157600080fd5b8063c8214f83146101ad578063ca0cdea8146101c0578063e00fd5431461021357600080fd5b806374f7c715116100c857806374f7c715146101295780638ef91d811461013e57806396c5904314610151578063bae78d7b1461018857600080fd5b80630be2e192146100ef578063206545c21461010b5780633e4bee381461011a575b600080fd5b6100f860045481565b6040519081526020015b60405180910390f35b6100f8670de0b6b3a764000081565b6100f86706f05b59d3b2000081565b61013c610137366004610e7e565b610294565b005b61013c61014c366004610edc565b610489565b61016461015f366004610f2a565b610680565b6040805160ff90951685526020850193909352918301526060820152608001610102565b61019b610196366004610f4c565b610739565b60405161010296959493929190610fb5565b61013c6101bb366004610ffc565b61089a565b6102026101ce366004610f2a565b60026020819052600091825260409091208054600182015492820154600383015460049093015460ff928316949391921685565b604051610102959493929190611095565b6100f8662386f26fc1000081565b6100f867016345785d8a000081565b61024361023e366004610f4c565b610af9565b60405161010297969594939291906110c7565b600054610269906001600160a01b031681565b6040516001600160a01b039091168152602001610102565b600154610269906001600160a01b031681565b6001546001600160a01b031633146102e85760405162461bcd60e51b81526020600482015260126024820152714f6e6c79205661756c742063616e206c6f6760701b60448201526064015b60405180910390fd5b6000848484426040516020016103019493929190611113565b60408051601f19818403018152919052805160209091012060048054919250600061032b8361116d565b90915550506040805160e0810182526004548152602081018681526001600160a01b0388169282019290925260608101859052608081018490524260a082015260c0810183905260038054600181018255600091909152815160079091027fc2575a0e9e593c00f959f8c92f12db2869c3395a3b0502d05e2516446f71f85b81019182559251919290917fc2575a0e9e593c00f959f8c92f12db2869c3395a3b0502d05e2516446f71f85c909101906103e4908261120f565b5060408201518160020160006101000a8154816001600160a01b0302191690836001600160a01b03160217905550606082015181600301556080820151816004015560a0820151816005015560c082015181600601555050846001600160a01b03166004547f10042177c88eca7ffbb15ca8d2bca496fa73815200ce7e2e99f24cd5946bb546868560405161047a9291906112cf565b60405180910390a35050505050565b6001546001600160a01b03163314806104ac57506000546001600160a01b031633145b6104e95760405162461bcd60e51b815260206004820152600e60248201526d139bdd08185d5d1a1bdc9a5e995960921b60448201526064016102df565b6000338484426040516020016105029493929190611113565b60408051601f19818403018152919052805160209091012060048054919250600061052c8361116d565b90915550506040805160e081018252600454815260208101868152339282019290925260608101859052608081018490524260a082015260c0810183905260038054600181018255600091909152815160079091027fc2575a0e9e593c00f959f8c92f12db2869c3395a3b0502d05e2516446f71f85b81019182559251919290917fc2575a0e9e593c00f959f8c92f12db2869c3395a3b0502d05e2516446f71f85c909101906105dc908261120f565b5060408201518160020160006101000a8154816001600160a01b0302191690836001600160a01b03160217905550606082015181600301556080820151816004015560a0820151816005015560c082015181600601555050336001600160a01b03166004547f10042177c88eca7ffbb15ca8d2bca496fa73815200ce7e2e99f24cd5946bb54686856040516106729291906112cf565b60405180910390a350505050565b6001600160a01b038116600090815260026020526040808220815160a08101909252805483928392839283929190829060ff1660048111156106c4576106c461105d565b60048111156106d5576106d561105d565b815260018201546020820152600282015460408201526003820154606082015260049182015460ff161515608090910152815191925081111561071a5761071a61105d565b8160200151826040015183606001519450945094509450509193509193565b60006060600080600080600060038881548110610758576107586112f1565b90600052602060002090600702016040518060e00160405290816000820154815260200160018201805461078b90611186565b80601f01602080910402602001604051908101604052809291908181526020018280546107b790611186565b80156108045780601f106107d957610100808354040283529160200191610804565b820191906000526020600020905b8154815290600101906020018083116107e757829003601f168201915b505050505081526020016002820160009054906101000a90046001600160a01b03166001600160a01b03166001600160a01b031681526020016003820154815260200160048201548152602001600582015481526020016006820154815250509050806000015181602001518260400151836060015184608001518560a001519650965096509650965096505091939550919395565b6001546001600160a01b03163314806108bd57506000546001600160a01b031633145b6108fa5760405162461bcd60e51b815260206004820152600e60248201526d139bdd08185d5d1a1bdc9a5e995960921b60448201526064016102df565b6004805490600061090a8361116d565b90915550506040516bffffffffffffffffffffffff19606086901b166020820152603481018490526054810183905242607482015260009060940160408051601f19818403018152828252805160209182012060e08401835260045484528251808401845260088152672227a720aa24a7a760c11b818401529184019182526001600160a01b0389169284019290925260608301879052608083018690524260a084015260c0830182905260038054600181018255600091909152835160079091027fc2575a0e9e593c00f959f8c92f12db2869c3395a3b0502d05e2516446f71f85b81019182559151929450917fc2575a0e9e593c00f959f8c92f12db2869c3395a3b0502d05e2516446f71f85c90910190610a27908261120f565b5060408201518160020160006101000a8154816001600160a01b0302191690836001600160a01b03160217905550606082015181600301556080820151816004015560a0820151816005015560c082015181600601555050846001600160a01b03166004547f10042177c88eca7ffbb15ca8d2bca496fa73815200ce7e2e99f24cd5946bb54685604051610ae091906040808252600890820152672227a720aa24a7a760c11b6060820152602081019190915260800190565b60405180910390a3610af28584610bda565b5050505050565b60038181548110610b0957600080fd5b60009182526020909120600790910201805460018201805491935090610b2e90611186565b80601f0160208091040260200160405190810160405280929190818152602001828054610b5a90611186565b8015610ba75780601f10610b7c57610100808354040283529160200191610ba7565b820191906000526020600020905b815481529060010190602001808311610b8a57829003601f168201915b505050600284015460038501546004860154600587015460069097015495966001600160a01b0390931695919450925087565b6001600160a01b0382166000908152600260205260409020600481015460ff16610c785760048101805460ff191660011790554260038201556040516001600160a01b038416907f9244f89f43cbcf5f03f0b3814a109fb7a55f9132d61c8410c0a3d19ba89097e990610c6f906020808252600e908201526d2324a929aa2fa227a720aa24a7a760911b604082015260600190565b60405180910390a25b81816001016000828254610c8c9190611307565b925050819055506001816002016000828254610ca89190611307565b925050819055506000610cbe8260010154610d5a565b825490915060ff166004811115610cd757610cd761105d565b816004811115610ce957610ce961105d565b1115610d545781548190839060ff19166001836004811115610d0d57610d0d61105d565b0217905550836001600160a01b03167f2bc74aaa59e4369e8de8007806b78534aaf19c56c5a2bb762cca8f706552021182604051610d4b9190611320565b60405180910390a25b50505050565b6000670de0b6b3a76400008210610d7357506004919050565b6706f05b59d3b200008210610d8a57506003919050565b67016345785d8a00008210610da157506002919050565b662386f26fc100008210610db757506001919050565b506000919050565b80356001600160a01b0381168114610dd657600080fd5b919050565b634e487b7160e01b600052604160045260246000fd5b600082601f830112610e0257600080fd5b813567ffffffffffffffff80821115610e1d57610e1d610ddb565b604051601f8301601f19908116603f01168101908282118183101715610e4557610e45610ddb565b81604052838152866020858801011115610e5e57600080fd5b836020870160208301376000602085830101528094505050505092915050565b60008060008060808587031215610e9457600080fd5b610e9d85610dbf565b9350602085013567ffffffffffffffff811115610eb957600080fd5b610ec587828801610df1565b949794965050505060408301359260600135919050565b600080600060608486031215610ef157600080fd5b833567ffffffffffffffff811115610f0857600080fd5b610f1486828701610df1565b9660208601359650604090950135949350505050565b600060208284031215610f3c57600080fd5b610f4582610dbf565b9392505050565b600060208284031215610f5e57600080fd5b5035919050565b60005b83811015610f80578181015183820152602001610f68565b50506000910152565b60008151808452610fa1816020860160208601610f65565b601f01601f19169290920160200192915050565b86815260c060208201526000610fce60c0830188610f89565b6001600160a01b03969096166040830152506060810193909352608083019190915260a09091015292915050565b6000806000806080858703121561101257600080fd5b61101b85610dbf565b93506020850135925060408501359150606085013567ffffffffffffffff81111561104557600080fd5b61105187828801610df1565b91505092959194509250565b634e487b7160e01b600052602160045260246000fd5b6005811061109157634e487b7160e01b600052602160045260246000fd5b9052565b60a081016110a38288611073565b85602083015284604083015283606083015282151560808301529695505050505050565b87815260e0602082015260006110e060e0830189610f89565b6001600160a01b03979097166040830152506060810194909452608084019290925260a083015260c09091015292915050565b6bffffffffffffffffffffffff198560601b1681526000845161113d816014850160208901610f65565b909101601481019390935250603482015260540192915050565b634e487b7160e01b600052601160045260246000fd5b60006001820161117f5761117f611157565b5060010190565b600181811c9082168061119a57607f821691505b6020821081036111ba57634e487b7160e01b600052602260045260246000fd5b50919050565b601f82111561120a57600081815260208120601f850160051c810160208610156111e75750805b601f850160051c820191505b81811015611206578281556001016111f3565b5050505b505050565b815167ffffffffffffffff81111561122957611229610ddb565b61123d816112378454611186565b846111c0565b602080601f831160018114611272576000841561125a5750858301515b600019600386901b1c1916600185901b178555611206565b600085815260208120601f198616915b828110156112a157888601518255948401946001909101908401611282565b50858210156112bf5787850151600019600388901b60f8161c191681555b5050505050600190811b01905550565b6040815260006112e26040830185610f89565b90508260208301529392505050565b634e487b7160e01b600052603260045260246000fd5b8082018082111561131a5761131a611157565b92915050565b6020810161131a828461107356fea2646970667358221220941f6529c1f76813f0f3857052716b476ee5a4170d5b204d7c0f8b77a8e80a5f64736f6c63430008130033",
  "immutableReferences": {},
  "source": "// SPDX-License-Identifier: MIT\r\npragma solidity ^0.8.19;\r\n\r\nimport './DonationVault.sol'; // Contract 2 imported here\r\n\r\ncontract AuditLogger {\r\n\r\n    address public admin;\r\n    address public vault;\r\n\r\n\r\n    // Badge tiers based on total ETH donated\r\n    uint256 public constant BRONZE = 0.01 ether;\r\n    uint256 public constant SILVER = 0.1 ether;\r\n    uint256 public constant GOLD   = 0.5 ether;\r\n    uint256 public constant DIAMOND = 1.0 ether;\r\n\r\n    enum BadgeTier { NONE, BRONZE, SILVER, GOLD, DIAMOND }\r\n\r\n    struct DonorProfile {\r\n        BadgeTier tier;\r\n        uint256 totalGiven;\r\n        uint256 donationCount;\r\n        uint256 firstDonation;\r\n        bool exists;\r\n    }\r\n\r\n    struct AuditEntry {\r\n        uint256 id;\r\n        string action; // 'DONATION', 'RELEASE', 'CAUSE_CREATED'\r\n        address actor;\r\n        uint256 causeId;\r\n        uint256 amount;\r\n        uint256 timestamp;\r\n        bytes32 dataHash; // integrity hash\r\n    }\r\n\r\n    mapping(address => DonorProfile) public donors;\r\n    AuditEntry[] public auditLog;\r\n    uint256 public auditCount;\r\n\r\n    // ■■ Events ■■■■■■■■■■■■■■■■■■■■■■■■■■■■■■■■■■■■■■■■■■■■■■■■■■■■■\r\n    event AuditEntryAdded(\r\n        uint256 indexed id,\r\n        string action,\r\n        address indexed actor,\r\n        uint256 amount\r\n    );\r\n\r\n    event BadgeUpgraded(address indexed donor, BadgeTier newTier);\r\n    event MilestoneReached(address indexed donor, string milestone);\r\n\r\n    modifier onlyAuthorized() {\r\n        require(\r\n            msg.sender == vault || msg.sender == admin,\r\n            \"Not authorized\"\r\n        );\r\n        _;\r\n    }\r\n\r\n    constructor(address _vault) {\r\n        admin = msg.sender;\r\n        vault = _vault;\r\n    }\r\n        \r\n\r\n    // Log a donation + update donor profile + badge\r\n    function logDonation(\r\n        address _donor,\r\n        uint256 _causeId,\r\n        uint256 _amount,\r\n        string memory _note\r\n    ) external onlyAuthorized {\r\n\r\n        auditCount++;\r\n\r\n        bytes32 txHash = keccak256(\r\n            abi.encodePacked(_donor, _causeId, _amount, block.timestamp)\r\n        );\r\n\r\n        auditLog.push(\r\n            AuditEntry(\r\n                auditCount,\r\n                \"DONATION\",\r\n                _donor,\r\n                _causeId,\r\n                _amount,\r\n                block.timestamp,\r\n                txHash\r\n            )\r\n        );\r\n\r\n        emit AuditEntryAdded(auditCount, \"DONATION\", _donor, _amount);\r\n\r\n        _updateDonor(_donor, _amount);\r\n    }\r\n\r\n    function logAction(\r\n        string memory _action,\r\n        uint256 _causeId,\r\n        uint256 _amount\r\n    ) external onlyAuthorized {\r\n\r\n        bytes32 h = keccak256(\r\n            abi.encodePacked(msg.sender, _action, _causeId, block.timestamp)\r\n        );\r\n\r\n        auditCount++;\r\n\r\n        auditLog.push(\r\n            AuditEntry(\r\n                auditCount,\r\n                _action,\r\n                msg.sender,\r\n                _causeId,\r\n                _amount,\r\n                block.timestamp,\r\n                h\r\n            )\r\n        );\r\n\r\n        emit AuditEntryAdded(auditCount, _action, msg.sender, _amount);\r\n    }\r\n\r\n    function _updateDonor(address _donor, uint256 _amount) internal {\r\n        DonorProfile storage p = donors[_donor];\r\n\r\n        if (!p.exists) {\r\n            p.exists = true;\r\n            p.firstDonation = block.timestamp;\r\n            emit MilestoneReached(_donor, \"FIRST_DONATION\");\r\n        }\r\n\r\n        p.totalGiven += _amount;\r\n        p.donationCount += 1;\r\n\r\n        BadgeTier nb = _badge(p.totalGiven);\r\n\r\n        if (nb > p.tier) {\r\n            p.tier = nb;\r\n            emit BadgeUpgraded(_donor, nb);\r\n        }\r\n    }\r\n\r\n    function _badge(uint256 t) internal pure returns (BadgeTier) {\r\n        if (t >= DIAMOND) return BadgeTier.DIAMOND;\r\n        if (t >= GOLD)    return BadgeTier.GOLD;\r\n        if (t >= SILVER)  return BadgeTier.SILVER;\r\n        if (t >= BRONZE)  return BadgeTier.BRONZE;\r\n        return BadgeTier.NONE;\r\n    }\r\n\r\n    function getDonor(address _d)\r\n        external\r\n        view\r\n        returns (\r\n            uint8 tier,\r\n            uint256 total,\r\n            uint256 count,\r\n            uint256 first\r\n        )\r\n    {\r\n        DonorProfile memory p = donors[_d];\r\n        return (uint8(p.tier), p.totalGiven, p.donationCount, p.firstDonation);\r\n    }\r\n\r\n    function getEntry(uint256 _i)\r\n        external\r\n        view\r\n        returns (\r\n            uint256,\r\n            string memory,\r\n            address,\r\n            uint256,\r\n            uint256,\r\n            uint256\r\n        )\r\n    {\r\n        AuditEntry memory e = auditLog[_i];\r\n        return (e.id, e.action, e.actor, e.causeId, e.amount, e.timestamp);\r\n    }\r\n    // Make it external and restricted to DonationVault only\r\n    function logActionInternal(\r\n        address _actor,\r\n        string memory _action,\r\n        uint256 _causeId,\r\n        uint256 _amount\r\n    ) external {\r\n        // Only allow the linked DonationVault to call this\r\n        require(msg.sender == address(vault), \"Only Vault can log\");\r\n\r\n        bytes32 h = keccak256(abi.encodePacked(_actor, _action, _causeId, block.timestamp));\r\n        auditCount++;\r\n\r\n        auditLog.push(\r\n            AuditEntry(auditCount, _action, _actor, _causeId, _amount, block.timestamp, h)\r\n        );\r\n\r\n        emit AuditEntryAdded(auditCount, _action, _actor, _amount);\r\n    }\r\n}",
  "sourcePath": "D:\\charity-dapp\\contracts\\AuditLogger.sol",
  "compiler": {
    "name": "solc",
    "version": "0.8.19+commit.7dd6d404.Emscripten.clang"
  },
  "schemaVersion": "3.4.16",
  "updatedAt": "2026-04-05T06:24:16.409Z",
  "networkType": "ethereum",
  "devdoc": {
    "kind": "dev",
    "methods": {},
    "version": 1
  },
  "userdoc": {
    "kind": "user",
    "methods": {},
    "version": 1
  }
}