{
  "contractName": "CharityRegistry",
  "abi": [
    {
      "inputs": [],
      "stateMutability": "nonpayable",
      "type": "constructor"
    },
    {
      "anonymous": false,
      "inputs": [
        {
          "indexed": true,
          "internalType": "uint256",
          "name": "causeId",
          "type": "uint256"
        }
      ],
      "name": "CauseClosed",
      "type": "event"
    },
    {
      "anonymous": false,
      "inputs": [
        {
          "indexed": true,
          "internalType": "uint256",
          "name": "causeId",
          "type": "uint256"
        },
        {
          "indexed": false,
          "internalType": "uint256",
          "name": "ngoId",
          "type": "uint256"
        },
        {
          "indexed": false,
          "internalType": "string",
          "name": "name",
          "type": "string"
        },
        {
          "indexed": false,
          "internalType": "uint256",
          "name": "goalWei",
          "type": "uint256"
        }
      ],
      "name": "CauseCreated",
      "type": "event"
    },
    {
      "anonymous": false,
      "inputs": [
        {
          "indexed": true,
          "internalType": "uint256",
          "name": "ngoId",
          "type": "uint256"
        },
        {
          "indexed": false,
          "internalType": "string",
          "name": "name",
          "type": "string"
        },
        {
          "indexed": false,
          "internalType": "address",
          "name": "wallet",
          "type": "address"
        }
      ],
      "name": "NGORegistered",
      "type": "event"
    },
    {
      "inputs": [],
      "name": "admin",
      "outputs": [
        {
          "internalType": "address",
          "name": "",
          "type": "address"
        }
      ],
      "stateMutability": "view",
      "type": "function",
      "constant": true
    },
    {
      "inputs": [],
      "name": "causeCount",
      "outputs": [
        {
          "internalType": "uint256",
          "name": "",
          "type": "uint256"
        }
      ],
      "stateMutability": "view",
      "type": "function",
      "constant": true
    },
    {
      "inputs": [
        {
          "internalType": "uint256",
          "name": "",
          "type": "uint256"
        }
      ],
      "name": "causes",
      "outputs": [
        {
          "internalType": "uint256",
          "name": "id",
          "type": "uint256"
        },
        {
          "internalType": "uint256",
          "name": "ngoId",
          "type": "uint256"
        },
        {
          "internalType": "string",
          "name": "name",
          "type": "string"
        },
        {
          "internalType": "string",
          "name": "description",
          "type": "string"
        },
        {
          "internalType": "string",
          "name": "emoji",
          "type": "string"
        },
        {
          "internalType": "uint256",
          "name": "goalWei",
          "type": "uint256"
        },
        {
          "internalType": "bool",
          "name": "active",
          "type": "bool"
        },
        {
          "internalType": "bool",
          "name": "exists",
          "type": "bool"
        }
      ],
      "stateMutability": "view",
      "type": "function",
      "constant": true
    },
    {
      "inputs": [],
      "name": "ngoCount",
      "outputs": [
        {
          "internalType": "uint256",
          "name": "",
          "type": "uint256"
        }
      ],
      "stateMutability": "view",
      "type": "function",
      "constant": true
    },
    {
      "inputs": [
        {
          "internalType": "uint256",
          "name": "",
          "type": "uint256"
        }
      ],
      "name": "ngos",
      "outputs": [
        {
          "internalType": "uint256",
          "name": "id",
          "type": "uint256"
        },
        {
          "internalType": "string",
          "name": "name",
          "type": "string"
        },
        {
          "internalType": "string",
          "name": "mission",
          "type": "string"
        },
        {
          "internalType": "address",
          "name": "wallet",
          "type": "address"
        },
        {
          "internalType": "bool",
          "name": "verified",
          "type": "bool"
        },
        {
          "internalType": "bool",
          "name": "exists",
          "type": "bool"
        }
      ],
      "stateMutability": "view",
      "type": "function",
      "constant": true
    },
    {
      "inputs": [
        {
          "internalType": "string",
          "name": "_name",
          "type": "string"
        },
        {
          "internalType": "string",
          "name": "_mission",
          "type": "string"
        },
        {
          "internalType": "address",
          "name": "_wallet",
          "type": "address"
        }
      ],
      "name": "registerNGO",
      "outputs": [
        {
          "internalType": "uint256",
          "name": "",
          "type": "uint256"
        }
      ],
      "stateMutability": "nonpayable",
      "type": "function"
    },
    {
      "inputs": [
        {
          "internalType": "uint256",
          "name": "_id",
          "type": "uint256"
        }
      ],
      "name": "verifyNGO",
      "outputs": [],
      "stateMutability": "nonpayable",
      "type": "function"
    },
    {
      "inputs": [
        {
          "internalType": "uint256",
          "name": "_ngoId",
          "type": "uint256"
        },
        {
          "internalType": "string",
          "name": "_name",
          "type": "string"
        },
        {
          "internalType": "string",
          "name": "_desc",
          "type": "string"
        },
        {
          "internalType": "string",
          "name": "_emoji",
          "type": "string"
        },
        {
          "internalType": "uint256",
          "name": "_goalWei",
          "type": "uint256"
        }
      ],
      "name": "createCause",
      "outputs": [
        {
          "internalType": "uint256",
          "name": "",
          "type": "uint256"
        }
      ],
      "stateMutability": "nonpayable",
      "type": "function"
    },
    {
      "inputs": [
        {
          "internalType": "uint256",
          "name": "_id",
          "type": "uint256"
        }
      ],
      "name": "closeCause",
      "outputs": [],
      "stateMutability": "nonpayable",
      "type": "function"
    },
    {
      "inputs": [
        {
          "internalType": "uint256",
          "name": "_id",
          "type": "uint256"
        }
      ],
      "name": "getCause",
      "outputs": [
        {
          "internalType": "uint256",
          "name": "",
          "type": "uint256"
        },
        {
          "internalType": "uint256",
          "name": "",
          "type": "uint256"
        },
        {
          "internalType": "string",
          "name": "",
          "type": "string"
        },
        {
          "internalType": "string",
          "name": "",
          "type": "string"
        },
        {
          "internalType": "string",
          "name": "",
          "type": "string"
        },
        {
          "internalType": "uint256",
          "name": "",
          "type": "uint256"
        },
        {
          "internalType": "bool",
          "name": "",
          "type": "bool"
        }
      ],
      "stateMutability": "view",
      "type": "function",
      "constant": true
    },
    {
      "inputs": [
        {
          "internalType": "uint256",
          "name": "_id",
          "type": "uint256"
        }
      ],
      "name": "getNGO",
      "outputs": [
        {
          "internalType": "string",
          "name": "",
          "type": "string"
        },
        {
          "internalType": "string",
          "name": "",
          "type": "string"
        },
        {
          "internalType": "address",
          "name": "",
          "type": "address"
        },
        {
          "internalType": "bool",
          "name": "",
          "type": "bool"
        }
      ],
      "stateMutability": "view",
      "type": "function",
      "constant": true
    },
    {
      "inputs": [
        {
          "internalType": "uint256",
          "name": "_id",
          "type": "uint256"
        }
      ],
      "name": "isCauseActive",
      "outputs": [
        {
          "internalType": "bool",
          "name": "",
          "type": "bool"
        }
      ],
      "stateMutability": "view",
      "type": "function",
      "constant": true
    },
    {
      "inputs": [
        {
          "internalType": "string",
          "name": "_ngoName",
          "type": "string"
        },
        {
          "internalType": "string",
          "name": "_ngoMission",
          "type": "string"
        },
        {
          "internalType": "address",
          "name": "_ngoWallet",
          "type": "address"
        },
        {
          "internalType": "string",
          "name": "_causeName",
          "type": "string"
        },
        {
          "internalType": "string",
          "name": "_causeDesc",
          "type": "string"
        },
        {
          "internalType": "string",
          "name": "_causeEmoji",
          "type": "string"
        },
        {
          "internalType": "uint256",
          "name": "_goalWei",
          "type": "uint256"
        }
      ],
      "name": "registerAndCreateCause",
      "outputs": [
        {
          "internalType": "uint256",
          "name": "",
          "type": "uint256"
        }
      ],
      "stateMutability": "nonpayable",
      "type": "function"
    }
  ],
  "bytecode": "0x608060405234801561001057600080fd5b50600080546001600160a01b03191633179055611824806100326000396000f3fe608060405234801561001057600080fd5b50600436106100cf5760003560e01c80639a79edec1161008c578063e8488eee11610066578063e8488eee146101ab578063f851a440146101ce578063f85dddcc146101f9578063fa8266f21461021c57600080fd5b80639a79edec14610186578063e022f6341461018f578063e22270351461019857600080fd5b80633a752d96146100d4578063538a942a146100e95780635a809753146101195780637acddaf21461012c5780638fce8dd71461014d5780639912e7f214610173575b600080fd5b6100e76100e2366004611187565b610241565b005b6100fc6100f7366004611187565b6102f2565b6040516101109897969594939291906111e6565b60405180910390f35b6100e7610127366004611187565b6104d2565b61013f61013a366004611310565b61053f565b604051908152602001610110565b61016061015b366004611187565b610849565b60405161011097969594939291906113fc565b61013f61018136600461145d565b610aa8565b61013f60025481565b61013f60015481565b61013f6101a63660046114f7565b610ca6565b6101be6101b9366004611187565b610e3c565b6040519015158152602001610110565b6000546101e1906001600160a01b031681565b6040516001600160a01b039091168152602001610110565b61020c610207366004611187565b610e79565b604051610110949392919061156b565b61022f61022a366004611187565b61102f565b604051610110969594939291906115b2565b6000546001600160a01b031633146102745760405162461bcd60e51b815260040161026b90611607565b60405180910390fd5b60008181526003602081905260409091200154600160a81b900460ff166102cd5760405162461bcd60e51b815260206004820152600d60248201526c1391d3c81b9bdd08199bdd5b99609a1b604482015260640161026b565b600090815260036020819052604090912001805460ff60a01b1916600160a01b179055565b6004602052600090815260409020805460018201546002830180549293919261031a9061162b565b80601f01602080910402602001604051908101604052809291908181526020018280546103469061162b565b80156103935780601f1061036857610100808354040283529160200191610393565b820191906000526020600020905b81548152906001019060200180831161037657829003601f168201915b5050505050908060030180546103a89061162b565b80601f01602080910402602001604051908101604052809291908181526020018280546103d49061162b565b80156104215780601f106103f657610100808354040283529160200191610421565b820191906000526020600020905b81548152906001019060200180831161040457829003601f168201915b5050505050908060040180546104369061162b565b80601f01602080910402602001604051908101604052809291908181526020018280546104629061162b565b80156104af5780601f10610484576101008083540402835291602001916104af565b820191906000526020600020905b81548152906001019060200180831161049257829003601f168201915b50505050600583015460069093015491929160ff80821692506101009091041688565b6000546001600160a01b031633146104fc5760405162461bcd60e51b815260040161026b90611607565b600081815260046020526040808220600601805460ff191690555182917f16dea8f5c9d745c9cf046229a826a456dd11a48af9c826bd008cef26832a1dc891a250565b600080546001600160a01b0316331461056a5760405162461bcd60e51b815260040161026b90611607565b6001600160a01b0386166105b15760405162461bcd60e51b815260206004820152600e60248201526d125b9d985b1a59081dd85b1b195d60921b604482015260640161026b565b600082116105f45760405162461bcd60e51b815260206004820152601060248201526f0476f616c206d757374206265203e20360841b604482015260640161026b565b6001805490600061060483611665565b90915550506040805160c0810182526001805480835260208084018d81528486018d90526001600160a01b038c1660608601526080850184905260a08501849052600092835260039091529390208251815592519192919082019061066990826116db565b506040820151600282019061067e90826116db565b50606082015160039091018054608084015160a0909401511515600160a81b0260ff60a81b19941515600160a01b026001600160a81b03199092166001600160a01b039094169390931717929092161790556001546040517f9ac6de3252026017223ae11f95490f6d43364cacf6e944eb7c437847f985c0d590610705908b908a9061179b565b60405180910390a26002805490600061071d83611665565b90915550506040805161010081018252600280548083526001805460208086019182528587018c8152606087018c9052608087018b905260a087018a905260c0870184905260e0870184905260009485526004909152959092208451815591519082015592519192919082019061079490826116db565b50606082015160038201906107a990826116db565b50608082015160048201906107be90826116db565b5060a0820151600582015560c08201516006909101805460e09093015115156101000261ff00199215159290921661ffff19909316929092171790556002546001546040517f5e802ec309b15da74495279896dcd59d77889b05f2bd9eb440a3d56e26d2c1e89161083291899087906117c5565b60405180910390a250600254979650505050505050565b60008060608060606000806000600460008a81526020019081526020016000206040518061010001604052908160008201548152602001600182015481526020016002820180546108999061162b565b80601f01602080910402602001604051908101604052809291908181526020018280546108c59061162b565b80156109125780601f106108e757610100808354040283529160200191610912565b820191906000526020600020905b8154815290600101906020018083116108f557829003601f168201915b5050505050815260200160038201805461092b9061162b565b80601f01602080910402602001604051908101604052809291908181526020018280546109579061162b565b80156109a45780601f10610979576101008083540402835291602001916109a4565b820191906000526020600020905b81548152906001019060200180831161098757829003601f168201915b505050505081526020016004820180546109bd9061162b565b80601f01602080910402602001604051908101604052809291908181526020018280546109e99061162b565b8015610a365780601f10610a0b57610100808354040283529160200191610a36565b820191906000526020600020905b815481529060010190602001808311610a1957829003601f168201915b5050509183525050600582015460208083019190915260069092015460ff80821615156040808501919091526101009092041615156060928301528351928401519084015160808501519285015160a086015160c090960151949f929e50909c50919a50909850919650945092505050565b600080546001600160a01b03163314610ad35760405162461bcd60e51b815260040161026b90611607565b60008681526003602081905260409091200154600160a81b900460ff16610b2c5760405162461bcd60e51b815260206004820152600d60248201526c1391d3c81b9bdd08199bdd5b99609a1b604482015260640161026b565b60008211610b6f5760405162461bcd60e51b815260206004820152601060248201526f0476f616c206d757374206265203e20360841b604482015260640161026b565b60028054906000610b7f83611665565b909155505060408051610100810182526002805480835260208084018b81528486018b8152606086018b9052608086018a905260a08601899052600160c0870181905260e08701819052600094855260049093529590922084518155915190820155925191929190820190610bf490826116db565b5060608201516003820190610c0990826116db565b5060808201516004820190610c1e90826116db565b5060a0820151600582015560c08201516006909101805460e09093015115156101000261ff00199215159290921661ffff19909316929092171790556002546040517f5e802ec309b15da74495279896dcd59d77889b05f2bd9eb440a3d56e26d2c1e890610c91908990899087906117c5565b60405180910390a25060025495945050505050565b600080546001600160a01b03163314610cd15760405162461bcd60e51b815260040161026b90611607565b6001600160a01b038216610d185760405162461bcd60e51b815260206004820152600e60248201526d125b9d985b1a59081dd85b1b195d60921b604482015260640161026b565b60018054906000610d2883611665565b90915550506040805160c0810182526001805480835260208084018981528486018990526001600160a01b038816606086015260006080860181905260a08601859052928352600390915293902082518155925191929190820190610d8d90826116db565b5060408201516002820190610da290826116db565b50606082015160039091018054608084015160a0909401511515600160a81b0260ff60a81b19941515600160a01b026001600160a81b03199092166001600160a01b039094169390931717929092161790556001546040517f9ac6de3252026017223ae11f95490f6d43364cacf6e944eb7c437847f985c0d590610e29908790869061179b565b60405180910390a2506001549392505050565b600081815260046020526040812060060154610100900460ff168015610e73575060008281526004602052604090206006015460ff165b92915050565b6060806000806000600360008781526020019081526020016000206040518060c001604052908160008201548152602001600182018054610eb99061162b565b80601f0160208091040260200160405190810160405280929190818152602001828054610ee59061162b565b8015610f325780601f10610f0757610100808354040283529160200191610f32565b820191906000526020600020905b815481529060010190602001808311610f1557829003601f168201915b50505050508152602001600282018054610f4b9061162b565b80601f0160208091040260200160405190810160405280929190818152602001828054610f779061162b565b8015610fc45780601f10610f9957610100808354040283529160200191610fc4565b820191906000526020600020905b815481529060010190602001808311610fa757829003601f168201915b5050509183525050600391909101546001600160a01b03811660208084019190915260ff600160a01b830481161515604080860191909152600160a81b9093041615156060938401528301519083015191830151608090930151909991985091965090945092505050565b600360205260009081526040902080546001820180549192916110519061162b565b80601f016020809104026020016040519081016040528092919081815260200182805461107d9061162b565b80156110ca5780601f1061109f576101008083540402835291602001916110ca565b820191906000526020600020905b8154815290600101906020018083116110ad57829003601f168201915b5050505050908060020180546110df9061162b565b80601f016020809104026020016040519081016040528092919081815260200182805461110b9061162b565b80156111585780601f1061112d57610100808354040283529160200191611158565b820191906000526020600020905b81548152906001019060200180831161113b57829003601f168201915b505050600390930154919250506001600160a01b0381169060ff600160a01b8204811691600160a81b90041686565b60006020828403121561119957600080fd5b5035919050565b6000815180845260005b818110156111c6576020818501810151868301820152016111aa565b506000602082860101526020601f19601f83011685010191505092915050565b60006101008a83528960208401528060408401526112068184018a6111a0565b9050828103606084015261121a81896111a0565b9050828103608084015261122e81886111a0565b60a0840196909652505091151560c0830152151560e09091015295945050505050565b634e487b7160e01b600052604160045260246000fd5b600082601f83011261127857600080fd5b813567ffffffffffffffff8082111561129357611293611251565b604051601f8301601f19908116603f011681019082821181831017156112bb576112bb611251565b816040528381528660208588010111156112d457600080fd5b836020870160208301376000602085830101528094505050505092915050565b80356001600160a01b038116811461130b57600080fd5b919050565b600080600080600080600060e0888a03121561132b57600080fd5b873567ffffffffffffffff8082111561134357600080fd5b61134f8b838c01611267565b985060208a013591508082111561136557600080fd5b6113718b838c01611267565b975061137f60408b016112f4565b965060608a013591508082111561139557600080fd5b6113a18b838c01611267565b955060808a01359150808211156113b757600080fd5b6113c38b838c01611267565b945060a08a01359150808211156113d957600080fd5b506113e68a828b01611267565b92505060c0880135905092959891949750929550565b87815286602082015260e06040820152600061141b60e08301886111a0565b828103606084015261142d81886111a0565b9050828103608084015261144181876111a0565b60a0840195909552505090151560c09091015295945050505050565b600080600080600060a0868803121561147557600080fd5b85359450602086013567ffffffffffffffff8082111561149457600080fd5b6114a089838a01611267565b955060408801359150808211156114b657600080fd5b6114c289838a01611267565b945060608801359150808211156114d857600080fd5b506114e588828901611267565b95989497509295608001359392505050565b60008060006060848603121561150c57600080fd5b833567ffffffffffffffff8082111561152457600080fd5b61153087838801611267565b9450602086013591508082111561154657600080fd5b5061155386828701611267565b925050611562604085016112f4565b90509250925092565b60808152600061157e60808301876111a0565b828103602084015261159081876111a0565b6001600160a01b03959095166040840152505090151560609091015292915050565b86815260c0602082015260006115cb60c08301886111a0565b82810360408401526115dd81886111a0565b6001600160a01b0396909616606084015250509115156080830152151560a0909101529392505050565b6020808252600a908201526941646d696e206f6e6c7960b01b604082015260600190565b600181811c9082168061163f57607f821691505b60208210810361165f57634e487b7160e01b600052602260045260246000fd5b50919050565b60006001820161168557634e487b7160e01b600052601160045260246000fd5b5060010190565b601f8211156116d657600081815260208120601f850160051c810160208610156116b35750805b601f850160051c820191505b818110156116d2578281556001016116bf565b5050505b505050565b815167ffffffffffffffff8111156116f5576116f5611251565b61170981611703845461162b565b8461168c565b602080601f83116001811461173e57600084156117265750858301515b600019600386901b1c1916600185901b1785556116d2565b600085815260208120601f198616915b8281101561176d5788860151825594840194600190910190840161174e565b508582101561178b5787850151600019600388901b60f8161c191681555b5050505050600190811b01905550565b6040815260006117ae60408301856111a0565b905060018060a01b03831660208301529392505050565b8381526060602082015260006117de60608301856111a0565b905082604083015294935050505056fea2646970667358221220beb5a23ea3e981eecf48892f6640af6ef861fabc1bcd3bf5f7da4bff81b5b5f764736f6c63430008130033",
  "immutableReferences": {},
  "source": "// SPDX-License-Identifier: MIT\r\npragma solidity ^0.8.19;\r\n\r\ncontract CharityRegistry {\r\n\r\n    address public admin;\r\n    uint256 public ngoCount;\r\n    uint256 public causeCount;\r\n\r\n    struct NGO {\r\n        uint256 id;\r\n        string name;\r\n        string mission;\r\n        address wallet; // NGO receives released funds here\r\n        bool verified;\r\n        bool exists;\r\n    }\r\n\r\n    struct Cause {\r\n        uint256 id;\r\n        uint256 ngoId;\r\n        string name;\r\n        string description;\r\n        string emoji;\r\n        uint256 goalWei; // donation goal in wei\r\n        bool active;\r\n        bool exists;\r\n    }\r\n\r\n    mapping(uint256 => NGO) public ngos;\r\n    mapping(uint256 => Cause) public causes;\r\n\r\n    // ■■ Events (audit trail) ■■■■■■■■■■■■■■■■■■■■■■■■■■■■■■■■■■■■■■■■\r\n    event NGORegistered(\r\n        uint256 indexed ngoId,\r\n        string name,\r\n        address wallet\r\n    );\r\n\r\n    event CauseCreated(\r\n        uint256 indexed causeId,\r\n        uint256 ngoId,\r\n        string name,\r\n        uint256 goalWei\r\n    );\r\n\r\n    event CauseClosed(uint256 indexed causeId);\r\n\r\n    modifier onlyAdmin() {\r\n        require(msg.sender == admin, \"Admin only\");\r\n        _;\r\n    }\r\n\r\n    constructor() {\r\n        admin = msg.sender;\r\n    }\r\n\r\n    // Admin registers a verified NGO\r\n    function registerNGO(\r\n        string memory _name,\r\n        string memory _mission,\r\n        address _wallet\r\n    ) external onlyAdmin returns (uint256) {\r\n\r\n        require(_wallet != address(0), \"Invalid wallet\");\r\n\r\n        ngoCount++;\r\n\r\n        ngos[ngoCount] = NGO(\r\n            ngoCount,\r\n            _name,\r\n            _mission,\r\n            _wallet,\r\n            false,\r\n            true\r\n        );\r\n\r\n        emit NGORegistered(ngoCount, _name, _wallet);\r\n\r\n        return ngoCount;\r\n    }\r\n\r\n    function verifyNGO(uint256 _id) external onlyAdmin {\r\n        require(ngos[_id].exists, \"NGO not found\");\r\n        ngos[_id].verified = true;\r\n    }\r\n\r\n    // Admin creates a fundraising cause under an NGO\r\n    function createCause(\r\n        uint256 _ngoId,\r\n        string memory _name,\r\n        string memory _desc,\r\n        string memory _emoji,\r\n        uint256 _goalWei\r\n    ) external onlyAdmin returns (uint256) {\r\n\r\n        require(ngos[_ngoId].exists, \"NGO not found\");\r\n        require(_goalWei > 0, \"Goal must be > 0\");\r\n\r\n        causeCount++;\r\n\r\n        causes[causeCount] = Cause(\r\n            causeCount,\r\n            _ngoId,\r\n            _name,\r\n            _desc,\r\n            _emoji,\r\n            _goalWei,\r\n            true,\r\n            true\r\n        );\r\n\r\n        emit CauseCreated(causeCount, _ngoId, _name, _goalWei);\r\n\r\n        return causeCount;\r\n    }\r\n\r\n    function closeCause(uint256 _id) external onlyAdmin {\r\n        causes[_id].active = false;\r\n        emit CauseClosed(_id);\r\n    }\r\n\r\n    // ■■ View functions ■■■■■■■■■■■■■■■■■■■■■■■■■■■■■■■■■■■■■■■■■■■■■\r\n\r\n    function getCause(uint256 _id)\r\n        external\r\n        view\r\n        returns (\r\n            uint256,\r\n            uint256,\r\n            string memory,\r\n            string memory,\r\n            string memory,\r\n            uint256,\r\n            bool\r\n        )\r\n    {\r\n        Cause memory c = causes[_id];\r\n        return (\r\n            c.id,\r\n            c.ngoId,\r\n            c.name,\r\n            c.emoji,\r\n            c.description,\r\n            c.goalWei,\r\n            c.active\r\n        );\r\n    }\r\n\r\n    function getNGO(uint256 _id)\r\n        external\r\n        view\r\n        returns (\r\n            string memory,\r\n            string memory,\r\n            address,\r\n            bool\r\n        )\r\n    {\r\n        NGO memory n = ngos[_id];\r\n        return (n.name, n.mission, n.wallet, n.verified);\r\n    }\r\n\r\n    function isCauseActive(uint256 _id) external view returns (bool) {\r\n        return causes[_id].exists && causes[_id].active;\r\n    }\r\n\r\n    // New combined function for one-click cause creation\r\n    function registerAndCreateCause(\r\n        string memory _ngoName,\r\n        string memory _ngoMission,\r\n        address _ngoWallet,\r\n        string memory _causeName,\r\n        string memory _causeDesc,\r\n        string memory _causeEmoji,\r\n        uint256 _goalWei\r\n    ) external onlyAdmin returns (uint256) {\r\n        require(_ngoWallet != address(0), \"Invalid wallet\");\r\n        require(_goalWei > 0, \"Goal must be > 0\");\r\n\r\n        // Register NGO\r\n        ngoCount++;\r\n        ngos[ngoCount] = NGO(ngoCount, _ngoName, _ngoMission, _ngoWallet, true, true);\r\n        emit NGORegistered(ngoCount, _ngoName, _ngoWallet);\r\n\r\n        // Create Cause under that NGO\r\n        causeCount++;\r\n        causes[causeCount] = Cause(\r\n            causeCount,\r\n            ngoCount,\r\n            _causeName,\r\n            _causeDesc,\r\n            _causeEmoji,\r\n            _goalWei,\r\n            true,\r\n            true\r\n        );\r\n        emit CauseCreated(causeCount, ngoCount, _causeName, _goalWei);\r\n\r\n        return causeCount;\r\n    }\r\n}",
  "sourcePath": "D:\\charity-dapp\\contracts\\CharityRegistry.sol",
  "compiler": {
    "name": "solc",
    "version": "0.8.19+commit.7dd6d404.Emscripten.clang"
  },
  "schemaVersion": "3.4.16",
  "updatedAt": "2026-04-05T06:24:16.363Z",
  "networkType": "ethereum",
  "devdoc": {
    "kind": "dev",
    "methods": {},
    "version": 1
  },
  "userdoc": {
    "kind": "user",
    "methods": {},
    "version": 1
  }
}