{
  "contractName": "DonationVault",
  "abi": [
    {
      "inputs": [
        {
          "internalType": "address",
          "name": "_registry",
          "type": "address"
        },
        {
          "internalType": "address",
          "name": "_audit",
          "type": "address"
        }
      ],
      "stateMutability": "nonpayable",
      "type": "constructor"
    },
    {
      "anonymous": false,
      "inputs": [
        {
          "indexed": true,
          "internalType": "uint256",
          "name": "id",
          "type": "uint256"
        },
        {
          "indexed": true,
          "internalType": "address",
          "name": "donor",
          "type": "address"
        },
        {
          "indexed": true,
          "internalType": "uint256",
          "name": "causeId",
          "type": "uint256"
        },
        {
          "indexed": false,
          "internalType": "uint256",
          "name": "amount",
          "type": "uint256"
        },
        {
          "indexed": false,
          "internalType": "uint256",
          "name": "timestamp",
          "type": "uint256"
        }
      ],
      "name": "DonationMade",
      "type": "event"
    },
    {
      "anonymous": false,
      "inputs": [
        {
          "indexed": true,
          "internalType": "uint256",
          "name": "causeId",
          "type": "uint256"
        },
        {
          "indexed": false,
          "internalType": "address",
          "name": "ngoWallet",
          "type": "address"
        },
        {
          "indexed": false,
          "internalType": "uint256",
          "name": "amount",
          "type": "uint256"
        },
        {
          "indexed": false,
          "internalType": "address",
          "name": "releasedBy",
          "type": "address"
        }
      ],
      "name": "FundsReleased",
      "type": "event"
    },
    {
      "inputs": [],
      "name": "admin",
      "outputs": [
        {
          "internalType": "address",
          "name": "",
          "type": "address"
        }
      ],
      "stateMutability": "view",
      "type": "function",
      "constant": true
    },
    {
      "inputs": [],
      "name": "audit",
      "outputs": [
        {
          "internalType": "contract AuditLogger",
          "name": "",
          "type": "address"
        }
      ],
      "stateMutability": "view",
      "type": "function",
      "constant": true
    },
    {
      "inputs": [
        {
          "internalType": "uint256",
          "name": "",
          "type": "uint256"
        }
      ],
      "name": "causeDonors",
      "outputs": [
        {
          "internalType": "uint256",
          "name": "",
          "type": "uint256"
        }
      ],
      "stateMutability": "view",
      "type": "function",
      "constant": true
    },
    {
      "inputs": [
        {
          "internalType": "uint256",
          "name": "",
          "type": "uint256"
        }
      ],
      "name": "causeRaised",
      "outputs": [
        {
          "internalType": "uint256",
          "name": "",
          "type": "uint256"
        }
      ],
      "stateMutability": "view",
      "type": "function",
      "constant": true
    },
    {
      "inputs": [
        {
          "internalType": "uint256",
          "name": "",
          "type": "uint256"
        }
      ],
      "name": "causeReleased",
      "outputs": [
        {
          "internalType": "uint256",
          "name": "",
          "type": "uint256"
        }
      ],
      "stateMutability": "view",
      "type": "function",
      "constant": true
    },
    {
      "inputs": [],
      "name": "donationCount",
      "outputs": [
        {
          "internalType": "uint256",
          "name": "",
          "type": "uint256"
        }
      ],
      "stateMutability": "view",
      "type": "function",
      "constant": true
    },
    {
      "inputs": [
        {
          "internalType": "uint256",
          "name": "",
          "type": "uint256"
        }
      ],
      "name": "donations",
      "outputs": [
        {
          "internalType": "uint256",
          "name": "id",
          "type": "uint256"
        },
        {
          "internalType": "address",
          "name": "donor",
          "type": "address"
        },
        {
          "internalType": "uint256",
          "name": "causeId",
          "type": "uint256"
        },
        {
          "internalType": "uint256",
          "name": "amount",
          "type": "uint256"
        },
        {
          "internalType": "uint256",
          "name": "timestamp",
          "type": "uint256"
        }
      ],
      "stateMutability": "view",
      "type": "function",
      "constant": true
    },
    {
      "inputs": [
        {
          "internalType": "address",
          "name": "",
          "type": "address"
        }
      ],
      "name": "donorTotal",
      "outputs": [
        {
          "internalType": "uint256",
          "name": "",
          "type": "uint256"
        }
      ],
      "stateMutability": "view",
      "type": "function",
      "constant": true
    },
    {
      "inputs": [],
      "name": "registry",
      "outputs": [
        {
          "internalType": "contract CharityRegistry",
          "name": "",
          "type": "address"
        }
      ],
      "stateMutability": "view",
      "type": "function",
      "constant": true
    },
    {
      "inputs": [],
      "name": "totalRaised",
      "outputs": [
        {
          "internalType": "uint256",
          "name": "",
          "type": "uint256"
        }
      ],
      "stateMutability": "view",
      "type": "function",
      "constant": true
    },
    {
      "inputs": [],
      "name": "totalReleased",
      "outputs": [
        {
          "internalType": "uint256",
          "name": "",
          "type": "uint256"
        }
      ],
      "stateMutability": "view",
      "type": "function",
      "constant": true
    },
    {
      "inputs": [
        {
          "internalType": "uint256",
          "name": "_causeId",
          "type": "uint256"
        }
      ],
      "name": "donate",
      "outputs": [],
      "stateMutability": "payable",
      "type": "function",
      "payable": true
    },
    {
      "inputs": [
        {
          "internalType": "uint256",
          "name": "_causeId",
          "type": "uint256"
        },
        {
          "internalType": "uint256",
          "name": "_amount",
          "type": "uint256"
        }
      ],
      "name": "releaseFunds",
      "outputs": [],
      "stateMutability": "nonpayable",
      "type": "function"
    },
    {
      "inputs": [
        {
          "internalType": "uint256",
          "name": "_id",
          "type": "uint256"
        }
      ],
      "name": "getCauseStats",
      "outputs": [
        {
          "internalType": "uint256",
          "name": "raised",
          "type": "uint256"
        },
        {
          "internalType": "uint256",
          "name": "released",
          "type": "uint256"
        },
        {
          "internalType": "uint256",
          "name": "donors",
          "type": "uint256"
        }
      ],
      "stateMutability": "view",
      "type": "function",
      "constant": true
    },
    {
      "inputs": [
        {
          "internalType": "uint256",
          "name": "_idx",
          "type": "uint256"
        }
      ],
      "name": "getDonation",
      "outputs": [
        {
          "internalType": "uint256",
          "name": "",
          "type": "uint256"
        },
        {
          "internalType": "address",
          "name": "",
          "type": "address"
        },
        {
          "internalType": "uint256",
          "name": "",
          "type": "uint256"
        },
        {
          "internalType": "uint256",
          "name": "",
          "type": "uint256"
        },
        {
          "internalType": "uint256",
          "name": "",
          "type": "uint256"
        }
      ],
      "stateMutability": "view",
      "type": "function",
      "constant": true
    },
    {
      "inputs": [],
      "name": "getBalance",
      "outputs": [
        {
          "internalType": "uint256",
          "name": "",
          "type": "uint256"
        }
      ],
      "stateMutability": "view",
      "type": "function",
      "constant": true
    },
    {
      "inputs": [
        {
          "internalType": "uint256",
          "name": "_causeId",
          "type": "uint256"
        }
      ],
      "name": "donateAndLog",
      "outputs": [],
      "stateMutability": "payable",
      "type": "function",
      "payable": true
    },
    {
      "inputs": [
        {
          "internalType": "address",
          "name": "_audit",
          "type": "address"
        }
      ],
      "name": "setAuditLogger",
      "outputs": [],
      "stateMutability": "nonpayable",
      "type": "function"
    }
  ],
  "bytecode": "0x608060405234801561001057600080fd5b506040516113a13803806113a183398101604081905261002f91610087565b600080546001600160a01b03199081163317909155600180546001600160a01b03948516908316179055600280549290931691161790556100ba565b80516001600160a01b038116811461008257600080fd5b919050565b6000806040838503121561009a57600080fd5b6100a38361006b565b91506100b16020840161006b565b90509250929050565b6112d8806100c96000396000f3fe6080604052600436106101095760003560e01c8063ade77ad311610095578063ef07a81f11610064578063ef07a81f14610323578063f14faf6f14610373578063f851a44014610386578063f8626af8146103a6578063f89ba1e7146103c657600080fd5b8063ade77ad3146102b5578063c5c4744c146102d7578063df7843ae146102ed578063e33b7de31461030d57600080fd5b80632abfab4d116100dc5780632abfab4d146101c657806332e1e4d5146101dc57806376b10d91146102095780637b10399914610236578063843194fb1461025657600080fd5b80630185fa3a1461010e57806312065fe01461014e5780631ddc0ef014610161578063297d925f14610199575b600080fd5b34801561011a57600080fd5b5061013b610129366004610f91565b60076020526000908152604090205481565b6040519081526020015b60405180910390f35b34801561015a57600080fd5b504761013b565b34801561016d57600080fd5b50600254610181906001600160a01b031681565b6040516001600160a01b039091168152602001610145565b3480156101a557600080fd5b5061013b6101b4366004610f91565b60086020526000908152604090205481565b3480156101d257600080fd5b5061013b60045481565b3480156101e857600080fd5b5061013b6101f7366004610fc2565b600a6020526000908152604090205481565b34801561021557600080fd5b5061013b610224366004610f91565b60096020526000908152604090205481565b34801561024257600080fd5b50600154610181906001600160a01b031681565b34801561026257600080fd5b5061029a610271366004610f91565b600081815260076020908152604080832054600883528184205460099093529220549193909250565b60408051938452602084019290925290820152606001610145565b3480156102c157600080fd5b506102d56102d0366004610fc2565b6103d9565b005b3480156102e357600080fd5b5061013b60055481565b3480156102f957600080fd5b506102d5610308366004610fe6565b610495565b34801561031957600080fd5b5061013b60065481565b34801561032f57600080fd5b5061034361033e366004610f91565b61085e565b604080519586526001600160a01b039094166020860152928401919091526060830152608082015260a001610145565b6102d5610381366004610f91565b6108e7565b34801561039257600080fd5b50600054610181906001600160a01b031681565b3480156103b257600080fd5b506103436103c1366004610f91565b610bd2565b6102d56103d4366004610f91565b610c1d565b6000546001600160a01b031633146104255760405162461bcd60e51b815260206004820152600a60248201526941646d696e206f6e6c7960b01b60448201526064015b60405180910390fd5b6001600160a01b0381166104735760405162461bcd60e51b8152602060048201526015602482015274496e76616c6964206175646974206164647265737360581b604482015260640161041c565b600280546001600160a01b0319166001600160a01b0392909216919091179055565b6000546001600160a01b031633146104dc5760405162461bcd60e51b815260206004820152600a60248201526941646d696e206f6e6c7960b01b604482015260640161041c565b6000828152600860209081526040808320546007909252822054610500919061101e565b9050600081116105475760405162461bcd60e51b81526020600482015260126024820152714e6f2066756e647320617661696c61626c6560701b604482015260640161041c565b600082158061055557508183115b61055f5782610561565b815b600154604051638fce8dd760e01b8152600481018790529192506000916001600160a01b0390911690638fce8dd790602401600060405180830381865afa1580156105b0573d6000803e3d6000fd5b505050506040513d6000823e601f3d908101601f191682016040526105d89190810190611108565b5050600154604051633e17777360e21b815260048101869052949650600095506001600160a01b03169363f85dddcc935060240191506106159050565b600060405180830381865afa158015610632573d6000803e3d6000fd5b505050506040513d6000823e601f3d908101601f1916820160405261065a91908101906111be565b509250506001600160a01b03821690506106ab5760405162461bcd60e51b8152602060048201526012602482015271125b9d985b1a59081391d3c81dd85b1b195d60721b604482015260640161041c565b600086815260086020526040812080548592906106c9908490611245565b9250508190555082600660008282546106e29190611245565b90915550506040516000906001600160a01b0383169085908381818185875af1925050503d8060008114610732576040519150601f19603f3d011682016040523d82523d6000602084013e610737565b606091505b505090508061077a5760405162461bcd60e51b815260206004820152600f60248201526e151c985b9cd9995c8819985a5b1959608a1b604482015260640161041c565b604080516001600160a01b0384168152602081018690523381830152905188917f6ca1f494d34ac73337cb6805183bc8efe65d2dcd464ff05ffe6c5fbc3b2cf2d3919081900360600190a26002546040516374f7c71560e01b815233600482015260806024820152600e60848201526d1195539114d7d49153115054d15160921b60a482015260448101899052606481018690526001600160a01b03909116906374f7c7159060c401600060405180830381600087803b15801561083d57600080fd5b505af1158015610851573d6000803e3d6000fd5b5050505050505050505050565b6000806000806000806003878154811061087a5761087a611258565b60009182526020918290206040805160a081018252600593909302909101805480845260018201546001600160a01b0316948401859052600282015492840183905260038201546060850181905260049092015460809094018490529b939a509098509650945092505050565b6000341161092c5760405162461bcd60e51b81526020600482015260126024820152710416d6f756e74206d757374206265203e20360741b604482015260640161041c565b600154604051637424477760e11b8152600481018390526001600160a01b039091169063e8488eee90602401602060405180830381865afa158015610975573d6000803e3d6000fd5b505050506040513d601f19601f82011682018060405250810190610999919061126e565b6109d85760405162461bcd60e51b815260206004820152601060248201526f4361757365206e6f742061637469766560801b604482015260640161041c565b600480549060006109e883611289565b90915550506040805160a08101825260045481523360208083019182528284018581523460608501818152426080870190815260038054600181018255600091825297517fc2575a0e9e593c00f959f8c92f12db2869c3395a3b0502d05e2516446f71f85b60059099029889015595517fc2575a0e9e593c00f959f8c92f12db2869c3395a3b0502d05e2516446f71f85c880180546001600160a01b0319166001600160a01b0390921691909117905592517fc2575a0e9e593c00f959f8c92f12db2869c3395a3b0502d05e2516446f71f85d870155517fc2575a0e9e593c00f959f8c92f12db2869c3395a3b0502d05e2516446f71f85e86015590517fc2575a0e9e593c00f959f8c92f12db2869c3395a3b0502d05e2516446f71f85f9094019390935584825260079052918220805491929091610b28908490611245565b9091555050336000908152600a602052604081208054349290610b4c908490611245565b925050819055503460056000828254610b659190611245565b90915550506000818152600960205260408120805460019290610b89908490611245565b9091555050600454604080513481524260208201528392339290917f8de165452b183da18e8f63b97bbd8d3c197d58cc79d09bb94730ff4eb5184bd6910160405180910390a450565b60038181548110610be257600080fd5b6000918252602090912060059091020180546001820154600283015460038401546004909401549294506001600160a01b0390911692909185565b60003411610c625760405162461bcd60e51b81526020600482015260126024820152710416d6f756e74206d757374206265203e20360741b604482015260640161041c565b600154604051637424477760e11b8152600481018390526001600160a01b039091169063e8488eee90602401602060405180830381865afa158015610cab573d6000803e3d6000fd5b505050506040513d601f19601f82011682018060405250810190610ccf919061126e565b610d0e5760405162461bcd60e51b815260206004820152601060248201526f4361757365206e6f742061637469766560801b604482015260640161041c565b60048054906000610d1e83611289565b90915550506040805160a08101825260045481523360208083019182528284018581523460608501818152426080870190815260038054600181018255600091825297517fc2575a0e9e593c00f959f8c92f12db2869c3395a3b0502d05e2516446f71f85b60059099029889015595517fc2575a0e9e593c00f959f8c92f12db2869c3395a3b0502d05e2516446f71f85c880180546001600160a01b0319166001600160a01b0390921691909117905592517fc2575a0e9e593c00f959f8c92f12db2869c3395a3b0502d05e2516446f71f85d870155517fc2575a0e9e593c00f959f8c92f12db2869c3395a3b0502d05e2516446f71f85e86015590517fc2575a0e9e593c00f959f8c92f12db2869c3395a3b0502d05e2516446f71f85f9094019390935584825260079052918220805491929091610e5e908490611245565b9091555050336000908152600a602052604081208054349290610e82908490611245565b90915550506000818152600960205260408120805460019290610ea6908490611245565b925050819055503460056000828254610ebf9190611245565b9091555050600454604080513481524260208201528392339290917f8de165452b183da18e8f63b97bbd8d3c197d58cc79d09bb94730ff4eb5184bd6910160405180910390a460025460405163c8214f8360e01b8152336004820152602481018390523460448201526080606482015260086084820152672237b730ba34b7b760c11b60a48201526001600160a01b039091169063c8214f839060c401600060405180830381600087803b158015610f7657600080fd5b505af1158015610f8a573d6000803e3d6000fd5b5050505050565b600060208284031215610fa357600080fd5b5035919050565b6001600160a01b0381168114610fbf57600080fd5b50565b600060208284031215610fd457600080fd5b8135610fdf81610faa565b9392505050565b60008060408385031215610ff957600080fd5b50508035926020909101359150565b634e487b7160e01b600052601160045260246000fd5b8181038181111561103157611031611008565b92915050565b634e487b7160e01b600052604160045260246000fd5b600082601f83011261105e57600080fd5b815167ffffffffffffffff8082111561107957611079611037565b604051601f8301601f19908116603f011681019082821181831017156110a1576110a1611037565b816040528381526020925086838588010111156110bd57600080fd5b600091505b838210156110df57858201830151818301840152908201906110c2565b600093810190920192909252949350505050565b8051801515811461110357600080fd5b919050565b600080600080600080600060e0888a03121561112357600080fd5b8751965060208801519550604088015167ffffffffffffffff8082111561114957600080fd5b6111558b838c0161104d565b965060608a015191508082111561116b57600080fd5b6111778b838c0161104d565b955060808a015191508082111561118d57600080fd5b5061119a8a828b0161104d565b93505060a088015191506111b060c089016110f3565b905092959891949750929550565b600080600080608085870312156111d457600080fd5b845167ffffffffffffffff808211156111ec57600080fd5b6111f88883890161104d565b9550602087015191508082111561120e57600080fd5b5061121b8782880161104d565b935050604085015161122c81610faa565b915061123a606086016110f3565b905092959194509250565b8082018082111561103157611031611008565b634e487b7160e01b600052603260045260246000fd5b60006020828403121561128057600080fd5b610fdf826110f3565b60006001820161129b5761129b611008565b506001019056fea2646970667358221220c8bb224ec4a3ce0bf9ac15d96ca30e372ef6d00c2774710ccaee1fee447abc5264736f6c63430008130033",
  "immutableReferences": {},
  "source": "// SPDX-License-Identifier: MIT\r\npragma solidity ^0.8.19;\r\n\r\nimport './CharityRegistry.sol'; // Contract 1 imported here\r\nimport \"./AuditLogger.sol\"; \r\n\r\ncontract DonationVault {\r\n\r\n    address public admin;\r\n    CharityRegistry public registry; // reference to Contract 1\r\n    AuditLogger public audit;  \r\n\r\n    struct Donation {\r\n        uint256 id;\r\n        address donor;\r\n        uint256 causeId;\r\n        uint256 amount; // in wei\r\n        uint256 timestamp;\r\n    }\r\n\r\n    Donation[] public donations;\r\n    uint256 public donationCount;\r\n    uint256 public totalRaised;\r\n    uint256 public totalReleased;\r\n\r\n    mapping(uint256 => uint256) public causeRaised;   // causeId => wei\r\n    mapping(uint256 => uint256) public causeReleased; // causeId => wei\r\n    mapping(uint256 => uint256) public causeDonors;   // causeId => count\r\n    mapping(address => uint256) public donorTotal;    // donor => wei\r\n\r\n    // ■■ Events (LO4: each emit = Ganache block mined) ■■■■■■■■■■■■■\r\n    event DonationMade(\r\n        uint256 indexed id,\r\n        address indexed donor,\r\n        uint256 indexed causeId,\r\n        uint256 amount,\r\n        uint256 timestamp\r\n    );\r\n\r\n    event FundsReleased(\r\n        uint256 indexed causeId,\r\n        address ngoWallet,\r\n        uint256 amount,\r\n        address releasedBy\r\n    );\r\n\r\n    modifier onlyAdmin() {\r\n        require(msg.sender == admin, \"Admin only\");\r\n        _;\r\n    }\r\n\r\n    constructor(address _registry, address _audit) {\r\n        admin = msg.sender;\r\n        registry = CharityRegistry(_registry);\r\n        audit = AuditLogger(_audit);\r\n    }\r\n\r\n    // ■■ DONATE — this is the function MetaMask signs ■■■■■■■■■■■■■■■\r\n    // Every call: MetaMask popup → real ETH transfer → Ganache block\r\n    function donate(uint256 _causeId) external payable {\r\n        require(msg.value > 0, \"Amount must be > 0\");\r\n        require(registry.isCauseActive(_causeId), \"Cause not active\");\r\n\r\n        donationCount++;\r\n\r\n        donations.push(\r\n            Donation(\r\n                donationCount,\r\n                msg.sender,\r\n                _causeId,\r\n                msg.value,\r\n                block.timestamp\r\n            )\r\n        );\r\n\r\n        causeRaised[_causeId] += msg.value;\r\n        donorTotal[msg.sender] += msg.value;\r\n        totalRaised += msg.value;\r\n        causeDonors[_causeId] += 1;\r\n\r\n        emit DonationMade(\r\n            donationCount,\r\n            msg.sender,\r\n            _causeId,\r\n            msg.value,\r\n            block.timestamp\r\n        );\r\n    }\r\n\r\n    // ■■ RELEASE FUNDS — admin approved payout to NGO wallet ■■■■■■■■\r\n    function releaseFunds(uint256 _causeId, uint256 _amount)\r\n        external\r\n        onlyAdmin\r\n    {\r\n        uint256 available = causeRaised[_causeId] - causeReleased[_causeId];\r\n        require(available > 0, \"No funds available\");\r\n\r\n        uint256 amt = (_amount == 0 || _amount > available) ? available : _amount;\r\n\r\n        (, uint256 ngoId,,,,,) = registry.getCause(_causeId);\r\n        (,, address ngoWallet,) = registry.getNGO(ngoId);\r\n        require(ngoWallet != address(0), \"Invalid NGO wallet\");\r\n\r\n        causeReleased[_causeId] += amt;\r\n        totalReleased += amt;\r\n\r\n        (bool ok,) = payable(ngoWallet).call{value: amt}(\"\");\r\n        require(ok, \"Transfer failed\");\r\n\r\n        emit FundsReleased(_causeId, ngoWallet, amt, msg.sender);\r\n\r\n        // 🔹 Add internal audit log call here\r\n        audit.logActionInternal(msg.sender, \"FUNDS_RELEASED\", _causeId, amt);\r\n    }\r\n\r\n    // ■■ View functions ■■■■■■■■■■■■■■■■■■■■■■■■■■■■■■■■■■■■■■■■■■■■■\r\n\r\n    function getCauseStats(uint256 _id)\r\n        external\r\n        view\r\n        returns (\r\n            uint256 raised,\r\n            uint256 released,\r\n            uint256 donors\r\n        )\r\n    {\r\n        return (\r\n            causeRaised[_id],\r\n            causeReleased[_id],\r\n            causeDonors[_id]\r\n        );\r\n    }\r\n\r\n    function getDonation(uint256 _idx)\r\n        external\r\n        view\r\n        returns (\r\n            uint256,\r\n            address,\r\n            uint256,\r\n            uint256,\r\n            uint256\r\n        )\r\n    {\r\n        Donation memory d = donations[_idx];\r\n        return (\r\n            d.id,\r\n            d.donor,\r\n            d.causeId,\r\n            d.amount,\r\n            d.timestamp\r\n        );\r\n    }\r\n\r\n    function getBalance() external view returns (uint256) {\r\n        return address(this).balance;\r\n    }\r\n\r\n    // ✅ New single transaction function\r\n    function donateAndLog(uint256 _causeId) external payable {\r\n        require(msg.value > 0, \"Amount must be > 0\");\r\n        require(registry.isCauseActive(_causeId), \"Cause not active\");\r\n\r\n        donationCount++;\r\n        donations.push(Donation(donationCount, msg.sender, _causeId, msg.value, block.timestamp));\r\n\r\n        causeRaised[_causeId] += msg.value;\r\n        donorTotal[msg.sender] += msg.value;\r\n        causeDonors[_causeId] += 1;\r\n        totalRaised += msg.value;\r\n\r\n        // Emit donation event\r\n        emit DonationMade(donationCount, msg.sender, _causeId, msg.value, block.timestamp);\r\n\r\n        // ✅ Audit log called inside same tx\r\n        audit.logDonation(msg.sender, _causeId, msg.value, \"Donation\");\r\n    }\r\n\r\n    function setAuditLogger(address _audit) external onlyAdmin {\r\n        require(_audit != address(0), \"Invalid audit address\");\r\n        audit = AuditLogger(_audit);\r\n    }\r\n}",
  "sourcePath": "D:\\charity-dapp\\contracts\\DonationVault.sol",
  "compiler": {
    "name": "solc",
    "version": "0.8.19+commit.7dd6d404.Emscripten.clang"
  },
  "schemaVersion": "3.4.16",
  "updatedAt": "2026-04-05T06:24:16.388Z",
  "networkType": "ethereum",
  "devdoc": {
    "kind": "dev",
    "methods": {},
    "version": 1
  },
  "userdoc": {
    "kind": "user",
    "methods": {},
    "version": 1
  }
}